:100000000C9499240C94D9240C94D9240C94D924BC
:100010000C94D9240C94D9240C94D9240C94D9246C
:100020000C94D9240C94D9240C94D9240C94D9245C
:100030000C94D9240C94D9240C94D9240C94D9244C
:100040000C94D9240C9488AE0C94D9240C94D92403
:100050000C94D9240C94D9240C94F9AC0D947D5EA5
:100060000C94D9240C9453950C943F950C94D9245A
:100070000C94D9240C94D9240C94D9240C94D9240C
:100080000C9429940C94D9240C94D9240C94D9243C
:100090000C9457940C9449950C94D9240C94D9241D
:1000A0000C94D9240C94D9240C94FB930C94D9244B
:1000B0000C94D9240C94D9240C94D9240C94D924CC
:1000C0000C94D9240C94D9240C94D9240C94D924BC
:1000D0000C94D9240C94D9240C94D9240C94D924AC
:1000E0000C94D924084AD73B3BCE016E84BCBFFD9B
:1000F000C12F3D6C74319ABD56833DDA3D00C77FF8
:1001000011BED9E4BB4C3E916BAAAABE0000008090
:100110003F05A84CCDB2D44EB93836A9020C50B91F
:10012000918688083CA6AAAA2ABE000000803F004B
:100130000D9425080D9450130D94DA2B0D94430B58
:100140000D9443200D9449070D9434030D94743994
:100150000D9468300D94C45D0D94EA5D0D94C93919
:100160000D94581D0D94A0270D946B3A0D94D01743
:100170000D945F130D94010A0D946E050D941E0EDF
:100180000D9467270D947D130D94B8240D94B35DE1
:100190000D94B1060D94EE0C0D94EE5D0D94D315F7
:1001A0000D945D3D0D948F040D94933B0D942F3D64
:1001B0000D941A280D94BB5D0D94C62B0D942B3A0B
:1001C0000D94E05D0D94B81B0D94DD6B0D944D3ACC
:1001D0000D943D390D94E40C0D94A7300D94F20C60
:1001E0000D9412280D949D5D0D94BC020D9478130E
:1001F0000D94C85D0D9441130D9417000D94AC132C
:100200000D945C3D0D94AB390D9460300D946913E1
:100210000D945A130D9473130D94E45D0D94053EE3
:100220000D9413060D94BD6B0D94093A0D94461A66
:100230000D94BE5D0D9435280D94B75D0D9464301A
:100240000D94D25D0D94BF6B0D9455130D94EB3846
:100250000D94DC5D0D94AF5D0D946F110D944B13F7
:100260000D9464130D943C130D946E130D94985DCE
:100270000D9446130D94A10F0D94CE5D0D94D65D93
:100280004E414E494E495459494E46CDCCCC3D0A7B
:10029000D7233C17B7D13877CC2B329595E6241F5E
:1002A000B14F0A000020410000C84200401C462017
:1002B000BCBE4CCA1B0E5AAEC59D7400407A10F3EA
:1002C0005A00A0724E18090010A5D4E80000E87684
:1002D00048170000E40B54020000CA9A3B000000DB
:1002E000E1F505000080969800000040420F0000F4
:1002F00000A08601000000102700000000E80300B5
:100300000000006400000000000A0000000000017E
:1003100000000000002C76D888DC674F0823DFC17E
:10032000DFAE59E1B1B796E5E3E453C63AE6519939
:100330007696E8E6C28426EB898C9B62ED407C6F62
:10034000FCEFBC9C9F40F2BAA56FA5F490055A2A19
:10035000F75C936B6CF9676DC11BFCE0E40D47FE25
:10036000F520E6B500D0ED902E030094357705001A
:1003700080841E080000204E0A000000C80C3333A1
:1003800033330F986E12831141EF8D2114893BE6B0
:100390005516CFFEE6DB18D1844B381BF77C1D9039
:1003A0001DA4BBE424203284725E228100C9F124A2
:1003B000ECA1E53D27434F4D4D554E49434154492E
:1003C0004F4E0044525952554E004552524F5253CF
:1003D00000494E464F004543484F004572726F72C8
:1003E0002077726974696E6720746F20454550529A
:1003F0004F4D210A0053544F505045442E20005079
:1004000072696E7465722073746F707065642064B5
:10041000756520746F206572726F72732E20466945
:100420007820746865206572726F7220616E642036
:10043000757365204D39393920746F207265737476
:100440006172742E202854656D70657261747572C6
:10045000652069732072657365742E20536574205E
:100460006974206166746572207265737461727458
:10047000696E67290A004E6F20436865636B737568
:100480006D2077697468206C696E65206E756D6289
:1004900065722C204C617374204C696E653A2000A3
:1004A0004E6F20436865636B73756D207769746860
:1004B000206C696E65206E756D6265722C204C61D2
:1004C0007374204C696E653A2000636865636B73D2
:1004D000756D206D69736D617463682C204C617358
:1004E00074204C696E653A20004C696E65204E752B
:1004F0006D626572206973206E6F74204C61737435
:10050000204C696E65204E756D6265722B312C2012
:100510004C617374204C696E653A20004D31313066
:100520000053657269616C20737461747573206D1A
:1005300069736D617463680A005344207265616475
:10054000206572726F720A002121204B494C4C20A9
:10055000636175736564206279204B494C4C20625D
:100560007574746F6E2F70696E0A002121204B49DB
:100570004C4C2063617573656420627920746F6FE1
:10058000206D75636820696E616374697665207497
:10059000696D65202D2063757272656E7420636FBE
:1005A0006D6D616E643A2000627573793A207061F6
:1005B0007573656420666F7220696E7075740A00C9
:1005C000627573793A2070617573656420666F7225
:1005D00020757365720A00627573793A2070726FC4
:1005E00063657373696E670A004D656469612052C3
:1005F000656D6F766564004D6564696120496E7351
:100600006572746564004D3130303053007061752F
:100610007365004D363030002066696C616D656E23
:10062000745F72756E6F7574200066696C616D65BC
:100630006E745F72756E6F757420540046696C61DC
:100640006D656E7452756E6F7574205400506C65D4
:10065000617365205265736574005052494E54456C
:10066000522048414C5445440025533A202553001C
:10067000706F7765726F6666004B494C4C45442E2F
:1006800020005072696E7465722068616C746564D4
:100690002E206B696C6C28292063616C6C65642169
:1006A0000A0053544F505045442E20005072696E3A
:1006B0007465722073746F70706564206475652052
:1006C000746F206572726F72732E20466978207481
:1006D0006865206572726F7220616E642075736543
:1006E000204D39393920746F2072657374617274CA
:1006F0002E202854656D706572617475726520696D
:10070000732072657365742E20536574206974209C
:1007100061667465722072657374617274696E6764
:10072000290A006563686F3A004572726F723A0079
:1007300042696C696E656172204C6576656C696EA4
:100740006720477269643A0A0021212053544F50B0
:100750002063616C6C6564206265636175736520FC
:100760006F6620424C546F756368206572726F72B9
:10077000202D20726573746172742077697468200B
:100780004D3939390A0021212053544F50206361DB
:100790006C6C65642062656361757365206F6620AB
:1007A000424C546F756368206572726F72202D2001
:1007B000726573746172742077697468204D393979
:1007C000390A002F2F616374696F6E3A0062757485
:1007D000746F6E00656E640073686F770070726F7F
:1007E0006D70745F00626567696E00486F74656E56
:1007F0006420746F6F20636F6C640A0053656E64CD
:10080000204D31303820746F20726573756D650A24
:1008100000496E736572742066696C616D656E74F3
:1008200020616E642073656E64204D3130380A009B
:1008300052656865617420446F6E65005265686535
:100840006174696E672E2E2E0052656865617400B2
:100850004865617465722054696D656F75740053E5
:10086000656E64204D31303820746F206865617486
:10087000206E6F7A7A6C650A004E6F7A7A6C65200A
:100880005061726B656400706175736564005061DE
:10089000757365004732362043616E63656C65642D
:1008A000004732362048656174696E67204E6F7A62
:1008B0007A6C65004732362048656174696E67203E
:1008C0004265640057616974696E6720666F7220C3
:1008D0006865617475702E0A004669786564204CFD
:1008E000656E677468205072696D6500446F6E654F
:1008F000205072696D696E67004D616E75616C2084
:100900007072696D696E672E2E2E004C6561766976
:100910006E6720473236003F5370656369666965CC
:100920006420582C5920636F6F7264696E6174651E
:10093000206F7574206F6620626F756E64732E0A67
:10094000003F28522965706561742076616C756579
:10095000206E6F7420706C61757369626C653B20EA
:100960006D757374206265206174206C65617374A9
:1009700020312E0A003F5370656369666965642003
:100980006E6F7A7A6C652074656D706572617475CE
:100990007265206E6F7420706C61757369626C652E
:1009A0002E0A003F53706563696669656420666955
:1009B0006C616D656E742073697A65206E6F74204A
:1009C000706C61757369626C652E0A003F537065C7
:1009D000636966696564207072696D65206C656E17
:1009E000677468206E6F7420706C61757369626CD7
:1009F000652E0A003F537065636966696564206E01
:100A00006F7A7A6C652073697A65206E6F742070D6
:100A10006C61757369626C652E0A003F5265747271
:100A2000616374696F6E204D756C7469706C696573
:100A300072206D75737420626520737065636966DA
:100A40006965642E0A003F53706563696669656471
:100A50002052657472616374696F6E204D756C7499
:100A600069706C696572206E6F7420706C6175734B
:100A700069626C652E0A003F53706563696669653B
:100A800064206C6179657220686569676874206E9E
:100A90006F7420706C61757369626C652E0A004317
:100AA000292E0A003F537065636966696564206298
:100AB00065642074656D7065726174757265206E11
:100AC0006F7420706C61757369626C6520283430B6
:100AD0002D00473236207374617274696E672E2E52
:100AE0002E0A00206D696E757465730020616E6456
:100AF0002000207475726E7300206279200020003F
:100B00005475726E20004733352061626F727465D0
:100B1000642E0A00202800473335206661696C6521
:100B20006420617420706F696E7420004732385AF7
:100B3000003F285329637265772074687265616489
:100B4000206D7573742062652033302C2033312C76
:100B50002034302C2034312C2035302C206F722062
:100B600035312E0A004F46460A004661646520482A
:100B700065696768742000426564204C6576656C21
:100B8000696E6720004661696C656420746F20653A
:100B90006E61626C6520426564204C6576656C69A7
:100BA0006E670A00496E76616C6964206D657368D2
:100BB0002E0A0050726F62696E6720506F696E7402
:100BC0000025532025692F2569002E0A002F00508B
:100BD000726F62696E67206D65736820706F696EF1
:100BE000742000202844525952554E29004732396A
:100BF000204175746F20426564204C6576656C6990
:100C00006E67003F20284C2C522C462C4229206F26
:100C10007574206F6620626F756E64732E0A003FD4
:100C20002856296572626F7365206C6576656C2045
:100C3000696D706C61757369626C652028302D3444
:100C4000292E0A00426164205A2076616C75650A7B
:100C5000004E6F2062696C696E656172206772690F
:100C6000640A00446576696174696F6E0025533AC1
:100C70002025730046696E6973686564210A003A2D
:100C8000207A3A2000206F662000476F696E672047
:100C9000746F3A20580043570A00206469723A0082
:100CA00020616E676C653A005374617274207261E2
:100CB000646975733A004D343820506F696E740062
:100CC00025533A2025642F256400506F7369746999
:100CD0006F6E696E67207468652070726F62652E32
:100CE0002E2E0A003F4C656773206F66206D6F766D
:100CF000656D656E7420696D706C61757369626C89
:100D0000652028302D3135292E0A003F2028582C07
:100D10005929206F7574206F6620626F756E647339
:100D20002E0A0050726F6265206F7574206F662006
:100D3000626F756E6473003F53616D706C652073F4
:100D4000697A65206E6F7420706C61757369626C6E
:100D5000652028342D3530292E0A004D3438205A8C
:100D60002D50726F626520526570656174616269B1
:100D70006C69747920546573740A003F285629659C
:100D800072626F7365206C6576656C20696D706C3E
:100D900061757369626C652028302D34292E0A0034
:100DA0005374616E6461726420446576696174692C
:100DB0006F6E3A20002052616E67653A2000204D28
:100DC00061783A2000204D696E3A2000205369670F
:100DD0006D613A20004D65616E3A2000204400208C
:100DE000204D323030205300202844697361626CFA
:100DF0006564293A0046696C616D656E742073659F
:100E00007474696E67730020204D323031205800B1
:100E10004D617820416363656C65726174696F6EC2
:100E20002028756E6974732F7332290020204D328B
:100E300030332058004D61782066656564726174B6
:100E400065732028756E6974732F73290020520012
:100E500020204D323034205000416363656C657250
:100E60006174696F6E2028756E6974732F733229EF
:100E70002028503C7072696E742D616363656C3E0E
:100E800020523C726574726163742D616363656C9A
:100E90003E20543C74726176656C2D616363656CB1
:100EA0003E29005741524E494E4721204C6F772032
:100EB0005A204A65726B206D6179206C65616420EF
:100EC000746F20756E77616E7465642070617573E0
:100ED00065732E0A0020540020530020204D32302C
:100EE00035204200416476616E6365642028423C8F
:100EF0006D696E5F7365676D656E745F74696D654E
:100F00005F75733E20533C6D696E5F666565647204
:100F10006174653E20543C6D696E5F7472617665E4
:100F20006C5F66656564726174653E20583C6D61F6
:100F3000785F785F6A65726B3E20593C6D61785FBF
:100F4000795F6A65726B3E205A3C6D61785F7A5FAB
:100F50006A65726B3E20453C6D61785F655F6A65CE
:100F6000726B3E290020440020490020204D333080
:100F700031205000486F74656E6420504944002051
:100F8000440020490020204D333034205000426579
:100F900064205049440020580020204D61783A20B8
:100FA00000200020204D696E3A2000203B200020C8
:100FB000204D323131205300536F667420656E64CA
:100FC00073746F707300203B0020550020204D3655
:100FD0003033204C0046696C616D656E74206C6F17
:100FE00061642F756E6C6F6164004D323453256CF3
:100FF0006454256C64004739322E39452573004707
:10100000314625640047315A257346363030004753
:10101000315825735925734633303030004D313007
:1010200036502569532569004D3130395325690003
:101030004D323030442573004739322E395A2573EA
:10104000004D3432305325635A25730047323852ED
:101050003058590047315A257346363030004739E9
:10106000322E395A2573004739322E394530004D1A
:10107000313039532569004D313930532569004DE0
:10108000343230205330205A3000203B20002020C2
:101090004D343133205300506F7765722D6C6F7370
:1010A00073207265636F76657279003B200020497A
:1010B0006E76616C696420657874727564657220FF
:1010C0000047322F47332062616420706172616D86
:1010D00065746572730A0047322F4733206261647A
:1010E00020706172616D65746572730A00536C657E
:1010F00065702E2E2E005A2050726F62652050614E
:101100007374204265640A005A2050726F62652031
:1011100050617374204265640070726F62655F7223
:101120006577697065004D3131372050726F6265A7
:10113000206661696C65642E205265776970696EFE
:10114000672E0A4732380A47313220503020533157
:101150003220543000473239205265747279696EFA
:10116000670070726F62655F6661696C65640050EC
:10117000726F62696E67204661696C6564004D310B
:10118000313720426564206C6576656C696E672036
:101190006661696C65642E0A4730205A31300A4D09
:1011A0003330302050323520533838300A4D333008
:1011B00030205035302053300A4D333030205032FB
:1011C0003520533838300A4D3330302050353020F8
:1011D00053300A4D333030205032352053383830B8
:1011E0000A4D333030205035302053300A473420F8
:1011F0005331004D31313720426564206C6576658E
:101200006C696E6720646F6E652E00205A3A20006C
:1012100020593A200042656420583A20004D6573F9
:101220006820706F696E74206F7574206F6620720D
:10123000616E67650A004D302053746F70004D3148
:101240002053746F7000436C69636B20746F20527D
:101250006573756D652E2E2E004E6F204D6F766571
:101260002E00456E642066696C65206C6973740A93
:1012700000426567696E2066696C65206C697374ED
:101280000A004E6F206D656469610A0052657375CE
:101290006D696E6720534400286E6F2066696C6527
:1012A000290043757272656E742066696C653A2018
:1012B000005344207072696E74696E67206279749D
:1012C0006520004E6F74205344207072696E7469FB
:1012D0006E670A005072696E742074696D653A20F9
:1012E000006F6B006F666600D603D103CA03C303A9
:1012F000B50344454255473A004D31313320530040
:1013000043522D3130205633204F46462E002F2F8A
:10131000004D31343520533C696E6465783E206F52
:101320007574206F662072616E67652028302D31DC
:10133000290A00206C696D6974656420746F20004F
:10134000204D6178200046656564726174650046D1
:10135000523A0020466C6F773A20003A2000205322
:101360006572766F2000206F7574206F6620726141
:101370006E67650A00536572766F200050726F6267
:1013800065204F6666736574205A0050726F6265FF
:10139000204F6666736574205A0064697300656E39
:1013A0000043290A0061626C656420286D696E2023
:1013B00074656D702000436F6C642065787472757D
:1013C0006465732061726520004F4646004F4E00F1
:1013D000203B20486F73742068616E646C696E678F
:1013E00020006D6D00203B2044697374616E63655D
:1013F000200046696C616D656E742072756E6F7544
:101400007420004D34323120696E636F72726563EF
:101410007420706172616D657465722075736167A7
:10142000650A004D65736820706F696E74206F7572
:1014300074206F662072616E67650A0045455052E0
:101440004F4D204F4B0A004D383400446F6E6520DD
:101450007072696E74696E672066696C650A004D0A
:101460003737004D333100446966663A202020004A
:1014700046726F6D5374703A005374657070657284
:101480003A00556E4C6576656C3A004C6576656C35
:1014900065643A005261773A20202020000A4C6FA0
:1014A000676963616C3A00436F756E7420453A005A
:1014B0004361703A00434F4E4649475F4558504F8D
:1014C0005254004D4541545041434B00434F4F4C03
:1014D00045525F54454D5045524154555245004385
:1014E00048414D4245525F54454D50455241545537
:1014F000524500424142595354455050494E4700CD
:1015000041524353004D4F54494F4E5F4D4F444558
:101510005300544845524D414C5F50524F5445433F
:1015200054494F4E00455854454E4445445F4D3252
:1015300030004C4F4E475F46494C454E414D4500AB
:101540004155544F5245504F52545F53445F53548A
:10155000415455530053445F575249544500524536
:1015600050454154005344434152440050524F4D62
:1015700050545F535550504F525400484F53545F8E
:10158000414354494F4E5F434F4D4D414E445300EC
:10159000454D455247454E43595F50415253455280
:1015A00000434153455F4C494748545F42524947C5
:1015B00048544E45535300544F47474C455F4C49A0
:1015C0004748545300534F4654574152455F504F7C
:1015D000574552004255494C445F50455243454E91
:1015E00054004C4556454C494E475F4441544100D8
:1015F0005A5F50524F42450052554E4F555400418C
:1016000055544F4C4556454C005052494E545F4A34
:101610004F420050524F4752455353004155544F8B
:101620005245504F52545F54454D50004155544F10
:101630005245504F52545F504F5300564F4C554DEA
:10164000455452494300454550524F4D0042494E82
:101650004152595F46494C455F5452414E534645AD
:10166000520053455249414C5F584F4E5F584F46C8
:1016700046004649524D574152455F4E414D453A0D
:101680004D61726C696E20322E302E392E322D440F
:1016900049534B2D424C2D32353030303020284DBF
:1016A000617920313420323032322030333A3431D3
:1016B0003A30312920534F555243455F434F4445FB
:1016C0005F55524C3A6769746875622E636F6D2F6F
:1016D0004D61726C696E4669726D776172652F4DEE
:1016E00061726C696E2050524F544F434F4C5F569D
:1016F000455253494F4E3A312E30204D41434849CF
:101700004E455F545950453A43522D31302056339F
:101710002045585452554445525F434F554E543A14
:101720003120555549443A63656465326132662D0E
:10173000343161322D343734382D396231322D63F2
:1017400035356336326633363766660A00290A0055
:1017500020746F20003F5A206F7574206F662072CE
:10176000616E6765202800290A0020746F20003F01
:1017700059206F7574206F662072616E676520282E
:101780002D00290A0020746F20003F58206F7574C7
:10179000206F662072616E676520282D00203B0057
:1017A00020204D3835312058005A2D50726F626517
:1017B000204F6666736574006F6B0A00526573652F
:1017C0006E643A200043616E6E6F74206F70656EB8
:1017D0002073756264697220002569730025696D44
:1017E00020256973002569682025696D20256973A6
:1017F00000256964202569682025696D20256973A5
:101800000025697920256964202569682025696D8E
:10181000202569730020696E200053746174733A47
:101820002000536572766963652033303068005359
:1018300065727669636520353068000A5374617497
:10184000733A2046696C616D656E742075736564CA
:101850003A20002C204C6F6E67657374206A6F62AB
:101860003A2000546F74616C2074696D653A2000F1
:1018700053746174733A20002C204661696C65646E
:101880003A20002C2046696E69736865643A20002E
:101890005072696E74733A200053746174733A2005
:1018A00000436F6F6C696E672E2E2E004865617461
:1018B000696E672E2E2E0045312025530042656447
:1018C00020436F6F6C696E672E2E2E004265642078
:1018D00048656174696E672E2E2E00236465666903
:1018E0006E652044454641554C545F006265640076
:1018F0004B6420004B6920004B702000504944206D
:101900004175746F74756E652066696E697368657C
:1019100064212050757420746865206C6173742094
:101920004B702C204B6920616E64204B6420636FE8
:101930006E7374616E74732066726F6D2062656C75
:101940006F7720696E746F20436F6E66696775727A
:101950006174696F6E2E680A0050494420417574A5
:101960006F74756E65206661696C656421207469A9
:101970006D656F75740A00504944204175746F7429
:10198000756E65206661696C6564212054656D70B3
:101990006572617475726520746F6F20686967681D
:1019A0000A00504944204379636C65730025532035
:1019B00025692F256900204B643A2000204B693AA5
:1019C0002000204B703A200020436C6173736963E0
:1019D00020504944200A00204E6F206F76657273B4
:1019E000686F6F740A002054753A2000204B753AD6
:1019F0002000206D61783A2000206D696E3A200049
:101A000020643A200020626961733A2000576169BE
:101A10007420666F7220686561742075702E2E2E9A
:101A200000504944204175746F74756E652073745D
:101A30006172740A00504944204175746F74756E68
:101A400065206661696C6564212054656D706572FE
:101A5000617475726520746F6F20686967680A0029
:101A6000504944204175746F74756E650050494447
:101A7000204175746F74756E65206661696C65646C
:101A80002120426164206865617465722069640A7E
:101A9000004572723A207574663820666F6E742045
:101AA0006E6F7420696E697469616C697A65642E01
:101AB000004572723A207574663820666F6E742025
:101AC0006E6F7420696E697469616C697A65642EE1
:101AD000004572723A207574663820666F6E742005
:101AE0006E6F7420696E697469616C697A65642EC1
:101AF00000000C0F00FE07022503BB017FFE08FE5D
:101B000008FE05080806000040F0C888889878108C
:101B1000050808060000C0F88888888888F8050548
:101B2000050600012030F8302005080806000020D6
:101B300070F820202020E00509090600FF2070A889
:101B4000A8B888887020070505070001D86C366C96
:101B5000D80509090600FFF8A88888888888A8F8A9
:101B6000050A0A0600FE205050505088A8A8887028
:101B700003030306000340A040FFFFFFFFFFFFFF3A
:101B8000FFFFFFFFFFFFFFFFFFFFFFFFFFFFFF0064
:101B900000000605FF0107070602008080808080A4
:101BA0000080030303060105A0A0A00506060600A9
:101BB0000050F85050F8500509090600FF2070A8A1
:101BC000A07028A87020050707060000C8C81020CC
:101BD00040989805070706000040A0A040A890681C
:101BE0000103030602058080800309090601FF2026
:101BF00040408080804040200309090601FF80406A
:101C00004020202040408005070706000020A870E3
:101C10002070A8200505050600012020F8202002DC
:101C200003030601FFC04080050101060003F8021E
:101C30000202060100C0C0050707060000081010D8
:101C400020404080050707060000708898A8C888D3
:101C50007003070706010040C040404040E0050710
:101C600007060000708808102040F80507070600E6
:101C700000F80810300888700507070600001030CB
:101C80005090F81010050707060000F880F00808CB
:101C90008870050707060000304080F088887005CE
:101CA0000707060000F80810102020200507070687
:101CB000000070888870888870050707060000702B
:101CC000888878081060020505060100C0C000C0C1
:101CD000C00206060601FFC0C000C0408003050523
:101CE0000601012040804020050303060002F800A1
:101CF000F80305050601018040204080050707061E
:101D000000007088102020002005070706000070E2
:101D100088B8A8B88070050707060000708888F8A2
:101D2000888888050707060000F04848704848F092
:101D30000507070600007088808080887005070707
:101D4000060000F04848484848F00507070600002C
:101D5000F88080F08080F8050707060000F8808092
:101D6000F0808080050707060000708880809888D2
:101D700070050707060000888888F88888880307A8
:101D800007060100E04040404040E005070706002C
:101D900000381010101090600507070600008890AA
:101DA000A0C0A09088050707060000808080808082
:101DB00080F805070706000088D8A8888888880565
:101DC00007070600008888C8A898888805070706BE
:101DD000000070888888888870050707060000F072
:101DE0008888F08080800507070600007088888852
:101DF000A89068050707060000F08888F0A0908882
:101E000005070706000070888070088870050707BE
:101E1000060000F8202020202020050707060000EB
:101E20008888888888887005070706000088888861
:101E30008850502005070706000088888888A8A8D1
:101E4000500507070600008888502050888805073D
:101E5000070600008888502020202005070706007C
:101E600000F80810204080F80309090601FFE0800F
:101E7000808080808080E005070706000080404069
:101E8000201010080309090601FFE020202020206F
:101E90002020E00503030600052050880501010607
:101EA00000FEF80303030601058040200505050632
:101EB000000070087888780507070600008080F029
:101EC000888888F005050506000070808088700508
:101ED0000707060000080878888888780505050641
:101EE00000007088F0807005070706000030484049
:101EF000E04040400507070600FE708888887808A3
:101F0000700507070600008080F08888888803072E
:101F1000070601004000C0404040E00409090601F6
:101F2000FE1000301010101090600507070600002A
:101F300080808890E09088030707060100C0404039
:101F4000404040E0050505060000D0A8A8A8A80567
:101F50000505060000B0C88888880505050600004C
:101F600070888888700507070600FEF0888888F06A
:101F700080800507070600FE7888888878080805AD
:101F80000505060000B0C880808005050506000034
:101F900078807008F00507070600002020F8202050
:101FA000201805050506000088888898680505053D
:101FB00006000088888850200505050600008888EE
:101FC000A8A8500505050600008850205088050780
:101FD000070600FE88888850204080050505060019
:101FE00000F8102040F80309090601FF2040404096
:101FF00080404040200109090602FF8080808080E7
:10200000808080800309090601FF80404040204015
:1020100040408005030306000248A890FF42616328
:102020006B2D4C656674004261636B2D5269676865
:10203000740046726F6E742D526967687400467240
:102040006F6E742D4C656674002100486F74656E68
:102050006420746F6F20636F6C64004261636B0077
:1020600050726F63656564004F6666004F6E005383
:102070006F667420456E6473746F7073004D6F7477
:10208000696F6E0044697361626C6520537465709A
:1020900070657273004D3834004D34382050726FC3
:1020A00062652054657374004732384F0A4D3438E6
:1020B0002050313000426564204C6576656C696E55
:1020C00067005472616D6D696E672057697A61723D
:1020D00064004732385A004732385900486F6D65FE
:1020E00020400047323858004175746F20486F6DAA
:1020F00065004D61696E00507265686561742024E9
:102100002042656400507265686561742024204532
:102110006E640054656D706572617475726500431C
:102120006F6F6C646F776E005072656865617420C4
:10213000240046616E20537065656400426564004A
:102140004E6F7A7A6C65004D61696E004D65617302
:10215000757265004C6173742076616C7565200042
:10216000426564205472616D6D696E6700446F6EE4
:1021700065003E20322027201D2053656C65637466
:10218000204F726967696E00486F6D696E672058ED
:10219000595A004732380050726F6265205A204FFA
:1021A000666673657400466C6F770046616E2053F7
:1021B0007065656400426564004E6F7A7A6C6500F4
:1021C0005370656564004D61696E00486F6D696E9E
:1021D00067204661696C6564006F70656E005452DB
:1021E00049474745524544003A200066696C616D95
:1021F000656E74007A5F70726F6265007A5F6D69F8
:102200006E00795F6D696E00785F6D696E00526572
:10221000706F7274696E6720656E6473746F70207E
:102220007374617475730A0020746F6F206C6F6E25
:102230006720657874727573696F6E207072657649
:10224000656E7465640A0020636F6C642065787441
:10225000727573696F6E2070726576656E746564F1
:102260000A00486F6D652025732573257320466924
:10227000727374000000A0C00000A0C00000000045
:102280005761726E696E673A20486F6D696E67209C
:1022900042756D702044697669736F72203C2031FD
:1022A0000A0002020400809843008098430000AFB7
:1022B000430000A0400000A04000000040000000DB
:1022C000010000000100008000555555000000404D
:1022D0000033333300AAAA2A0049922400000020C8
:1022E00000C7711C0099991900D145170055551563
:1022F000003BB1130024491200111111000000101D
:10230000000F0F0F00E3380E0043790D00CCCC0C0A
:1023100000C3300C00E8A20B0064210B00AAAA0A3B
:1023200000703D0A009DD80900427B0900922409F3
:1023300000DCD3080088880800104208000000086C
:1023400000F0C107008787070075500700711C0760
:10235000003EEB0600A1BC0600699006006666061A
:1023600000703E06006118060017F4050074D105E0
:10237000005BB00500B2900500627205005555057E
:102380000078390500B81E0500050505004EEC046F
:102390000087D40400A1BD040090A7040049920462
:1023A00000C17D0400EE690400C7560400444404E3
:1023B000005C320400082104004110040000000405
:1023C000003FF00300F8E0030026D20300C3C3037C
:1023D00000CCB503003AA803000A9B0300388E0323
:1023E00000C08103009F750300D0690300505E03A5
:1023F000001D53030034480300913D0300333303B1
:102400000016290300381F030097150300300C0342
:1024100000030303000BFA020049F10200BAE802CC
:10242000005CE002002DD802002DD0020059C80245
:1024300000B0C0020031B90200DAB10200AAAA025B
:1024400000A0A30200BC9C0200FA9502005C8F026F
:1024500000DF88020082820200457C0200277602AB
:102460000027700200436A02007C640200D05E0212
:10247000003F590200C8530200FFFDFCFAF8F6F4D1
:10248000F2F0EEECEAE9E7E5E3E1E0DEDCDAD9D709
:10249000D5D4D2D0CFCDCBCAC8C7C5C3C2C0BFBDAB
:1024A000BCBAB9B7B6B4B3B2B0AFADACAAA9A8A61E
:1024B000A5A4A2A1A09E9D9C9A9998979594939269
:1024C000908F8E8D8B8A8988878684838281807F96
:1024D0007E7D7B7A797877767574737271706F6EA2
:1024E0006D6C6B6A696867666564636261605F5E94
:1024F0005D5C5B5A59585857565554535251505079
:102500004F4E4D4C4B4A4A49484746464544434244
:102510004241403F3E3E3D3C3B3B3A3938383736FE
:102520003535343332323130302F2E2E2D2C2B2BAB
:102530002A2929282727262525242323222121204B
:10254000201F1E1E1D1C1C1B1B1A191918181716DC
:1025500016151514131312121111100F0F0E0E0D64
:102560000D0C0C0B0A0A09090808070706060505E1
:102570000404030302020100003D3D3D3D3D3D3D9D
:102580003D3D3D3D3D3D3D3D3D3D3D3D3D3D3D3D7B
:102590003D3D3D3D3D3D3D3D3D3D3D3D3D3D3D3D6B
:1025A0003D3D3D3D3D3D0A00210A002053657276C8
:1025B0006963652033303068002053657276696343
:1025C0006520353068000000964300009643000007
:1025D000AF430000A0C00000A0C000000000536591
:1025E0007474696E67732053746F72656400290A8E
:1025F000002062797465733B206372632000536529
:102600007474696E67732053746F72656420280058
:1026100048617264636F6465642044656661756CCB
:10262000742053657474696E6773204C6F616465C0
:10263000640A0020286D6D2900203B204C657665DA
:102640006C696E67200020204D34323020530041E9
:1026500075746F20426564204C6576656C696E67A1
:102660000020460020480020204D31343520530002
:102670004D6174657269616C206865617475702064
:10268000706172616D657465727300203B205365E3
:102690006E736F72200020440020204D34313220B0
:1026A000530046696C616D656E742072756E6F754E
:1026B000742073656E736F7200204A0020204732C9
:1026C00039205720490020204D3134392043203B08
:1026D00020556E69747320696E2043656C7369754B
:1026E000730A0054656D706572617475726520556A
:1026F0006E697473002020473231203B004C696EB4
:1027000065617220556E69747300454550524F4D96
:10271000206461746173697A65206572726F722ECC
:102720000A00290A002062797465733B2063726392
:1027300020002073746F7265642073657474696E11
:10274000677320726574726965766564202800205D
:102750002863616C63756C6174656429210A0020CB
:10276000213D2000454550524F4D20435243206D9E
:1027700069736D61746368202D202873746F7265AE
:10278000642920002053697A653A2000496E646507
:10279000783A2000000048430000484300006041B0
:1027A0000000C8410000A0420000A0420000C84351
:1027B0000080CB43F4010000F4010000640000003D
:1027C000E8030000204D61726C696E3D5638362971
:1027D0000A00454550524F4D2076657273696F6E01
:1027E000206D69736D617463682028454550524FB0
:1027F0004D3D0024F4D43050C38E20C2A240178235
:102800008B7011127A910D816CD90AA861E108C709
:10281000586607615143061E4B5D05C145A7041A62
:10282000411104093D9803713931034036DB0265DB
:10283000339102D4305402802E1D02632CEE0175B8
:102840002AC501B028A001102781018F2564012B22
:10285000244B01E0223401AC211F018D200D0180A9
:102860001FFC00841EED00971DDF00B81CD200E69F
:102870001BC600201BBC00641AB200B219A8000AD3
:1028800019A0006A189900D117910040178B00B564
:1028900016840031167E00B31579003A157300C70F
:1028A000146F0058146A00EE136600881363002545
:1028B000135E00C7125B006C12570015125400C162
:1028C00011510070114F0021114B00D61049008D9D
:1028D0001047004610440002104200C00F40008024
:1028E0000F3E00420F3C00060F3B00CB0E3800931A
:1028F0000E37005C0E3500270E3400F30D3200C198
:102900000D3100900D3000600D2E00320D2D0005B0
:102910000D2C00D90C2B00AE0C2900850C29005C75
:102920000C2700350C27000E0C2600E80B2400C4F1
:102930000B2400A00B23007D0B23005A0B21003930
:102940000B2100180B2000F80A1F00D90A1E00BB3B
:102950000A1E009D0A1D00800A1D00630A1C004714
:102960000A1B002C0A1B00110A1A00F7091A00DDC5
:10297000091900C4091900AB091900920917007B55
:10298000091800630917004C0916003609160020C3
:102990000916000A091500F5081500E0081400CC16
:1029A000081400B8081400A4081400900813007D4F
:1029B0000812006B08130058081200460812003471
:1029C000081100230811001208110001081100F07D
:1029D000071000E0071000D0071000C0071000B07B
:1029E000070F00A107100091070E0083070F007466
:1029F000070F0065070E0057070E0049070E003B42
:102A0000070D002E070E0020070D0013070D00060E
:102A1000070D00F9060C00ED060D00E0060C00D4D1
:102A2000060C00C8060C00BC060C00B0060C00A486
:102A3000060B0099060C008D060B0082060B007732
:102A4000060B006C060B0061060A0057060B004CD3
:102A5000060A0042060A0038060A002E060A00246A
:102A6000060A001A060A001006090007060A00FDF9
:102A7000050900F4050900EB050900E2050900D984
:102A8000050900D0050900C7050900BE050900B504
:102A9000050800AD050800A50509009C050800947F
:102AA0000508008C050800840508007C05080074F2
:102AB0000508006C050700650508005D0507005660
:102AC0000508004E050700470507004005080038C7
:102AD000050700310507002A050700230507001C2C
:102AE000050600160507000F050700080506000289
:102AF000050700FB040600F5040700EE040600E8E5
:102B0000040600E2040700DB040600D5040600CF3B
:102B1000040600C9040600C3040600BD040600B78D
:102B2000040600B1040500AC040600A6040600A0DB
:102B30000405009B04060095040500900406008A25
:102B400004050085040500800406007A040500756C
:102B5000040500700405006B0405006604050061AF
:102B60000405005C04050057040500520405004DEF
:102B700004050048040500430405003E0404003A2F
:102B800004050035040500300404002C040500276A
:102B9000040400230405001E0404001A04040016A3
:102BA000040500110404000D0404000904050004D8
:102BB00004040000040400FC030400F8030400F40F
:102BC000030400F0030400EC030400E8030400E441
:102BD000030400E0030400DC030400D8030400D471
:102BE000030400D0030400CC030400C8030300C5A1
:102BF00003030024F404D9201BC40C5C0E9804C405
:102C0000095F0265077101F405F900FB04B3004890
:102C1000048700C10369005803550003034500BE43
:102C2000023A008402310053022A002902250004DE
:102C3000022000E4011C00C8011900AF0117009830
:102C40000114008401130071011000610110005192
:102C5000010E0043010D0036010B002B010B00207B
:102C6000010B00150109000C01090003010800FB1C
:102C7000000800F3000800EB000700E4000600DE97
:102C8000000600D8000600D2000600CC000500C7F0
:102C9000000500C2000500BD000400B9000400B535
:102CA000000400B1000400AD000400A9000400A568
:102CB000000300A20003009F0004009B0003009893
:102CC0000003009500020093000300900003008DB4
:102CD0000002008B000300880002008600020084CE
:102CE000000300810002007F0002007D0002007BE3
:102CF00000020079000200770001007600020074F3
:102D000000020072000100710002006F0002006DFD
:102D10000001006C0002006A000100690002006707
:102D2000000100660001006500010064000200620D
:102D300000010061000100600001005F0002005D11
:102D40000001005C0001005B0001005A0001005915
:102D50000001005800010057000100560001005515
:102D60000001005400010053000000530001005214
:102D700000010051000100500001004F0001004E11
:102D80000000004E0001004D0001004C0001004B0E
:102D90000000004B0001004A00010049000100480A
:102DA0000000004800010047000100460000004606
:102DB00000010045000000450001004400010043FF
:102DC00000000043000100420000004200010041F9
:102DD00000000041000100400001003F0000003FF2
:102DE0000001003E0000003E0001003D0000003DEB
:102DF0000001003C0000003C0000003C0001003BE2
:102E00000000003B0001003A0000003A00010039D8
:102E100000000039000100380000003800000038D0
:102E200000010037000000370001003600000036C6
:102E300000000036000100350000003500000035BC
:102E400000010034000000340000003400010033B1
:102E500000000033000000330001003200000032A7
:102E6000000000320001003100000031000000319C
:102E70000001003000000030000000300001002F91
:102E80000000002F0000002F0000002F0001002E86
:102E90000000002E0000002E0001002D0000002D7B
:102EA0000000002D0000002D0001002C0000002C6F
:102EB0000000002C0000002C0001002B0000002B63
:102EC0000000002B0000002B0001002A0000002A57
:102ED0000000002A0000002A00010029000000294B
:102EE000000000290000002900000029000100283E
:102EF0000000002800000028000000280000002832
:102F00000001002700000027000000270000002724
:102F10000000002700010026000000260000002617
:102F2000000000260000002600010025000000250A
:102F300000000025000000250000002500000025FD
:102F400000010024000000240000002400000024F0
:102F500000000024000100230000002300000023E3
:102F600000000023000000230000002300000023D5
:102F700000010022000000220000002200000022C8
:102F800000000022000000220001002100000021BA
:102F900000000021000000210000002100000021AD
:102FA000000000210001002000000020000000209F
:102FB0000000002000000020000000200000002091
:102FC000000000200001001F0000001F0000001F83
:102FD0000000001F0000001F0000001F0000001F75
:102FE0000001001E0000001E0000001E0000001E68
:102FF000000000393000003325000087190000B0C0
:103000000F0000DB080000BD040000740200003F58
:1030100001000020436F756E7420583A00426564C9
:10302000004531004500626564002C20737973749B
:10303000656D2073746F70706564212048656174DC
:1030400065725F49443A200048656174696E672083
:103050004661696C65640048656174696E672066E5
:1030600061696C6564004D31313220536875746458
:103070006F776E004572723A204D415854454D505D
:10308000004D415854454D50207472696767657210
:103090006564004572723A204D494E54454D5000CA
:1030A0004D494E54454D502074726967676572658D
:1030B0006400544845524D414C2052554E415741B1
:1030C0005900546865726D616C2052756E6177614C
:1030D0007900202F002042403A0020403A0020573B
:1030E0003A0020573A00496E76616C696420657831
:1030F0007472756465720A007C3C3E5E2B3D3F2F06
:103100005B5D3B2C2A225C0043616E6E6F74206F06
:1031100070656E2073756264697220004D65646924
:103120006120496E6974204661696C0053442063D4
:10313000617264206F6B0A006F70656E526F6F74FE
:10314000206661696C65640A00766F6C756D652E2A
:10315000696E6974206661696C65640A004E6F204F
:10316000534420636172640A000A4D3234004D32C8
:1031700033202573002E0A006F70656E206661692A
:103180006C65642C2046696C653A200046696C6564
:103190002073656C65637465640A002053697A6501
:1031A0003A200046696C65206F70656E65643A2050
:1031B00000454E4420535542524F5554494E450AFE
:1031C000002220706F73002220706172656E743A65
:1031D0002200535542524F5554494E452043414CCD
:1031E0004C207461726765743A22005375626361A2
:1031F0006C6C204F766572666C6F770045786365FE
:1032000065646564206D617820535542524F555472
:10321000494E452064657074683A00554E4C4F41E4
:10322000442046494C414D454E54004C4F414420AA
:1032300046494C414D454E540046494C414D454E42
:1032400054204348414E47450042656400456E6343
:103250006C6F73757265002568753A253032687534
:103260000025303268753A253032687500253032D5
:103270006875272530326875002020202020202006
:10328000002020202000657272001FE02010201016
:103290002010102010202010201030300840048012
:1032A00003001FE03FF03FF03FF01FE01FE03FF062
:1032B0003FF03FF00FC0078003003FFFF038007081
:1032C00030FC3020FC102078102030102C00D02E44
:1032D00031D02F7BD02F7BD02E31D02C00D020307E
:1032E0001020781020FC1030FC303800703FFFF0C8
:1032F0003FFFF03800703186302387102787902FEA
:1033000087D02F03D0203010207810207810203064
:10331000102F03D02F87D027879023871031863036
:103320003800703FFFF01FFFF81FFFF80410400245
:10333000082002082004104008208010410010419D
:10334000000820800410400000001FFFF81FFFF855
:103350000000000000000003FFFE0000020FE977FC
:1033600002320FE984864A0FE984824A0FF9873ACC
:103370004A000184824A000184824AFFFD74873238
:103380009F7D000002DF7D044C02DEFD045202DE60
:10339000C50442028DDD028C02FDC5028202FBF5EE
:1033A000011202FBC5010C02FFFD0000020001003A
:1033B0000003FFFF000000000043522D3130205673
:1033C000332052656164792E003E20536572766920
:1033D0006365203330306821003E20536572766982
:1033E00063652035306821005072696E74696E67BC
:1033F0002E2E2E006E6F74696669636174696F6E3C
:10340000200063616E63656C005072696E742041C8
:10341000626F727465640055492041626F72746511
:1034200064004D323520500A4D3234005072696EBE
:10343000742050617573656400526573756D650025
:1034400055492050617573650050617573696E67E9
:103450002E2E2E00726573756D65004D3234004559
:103460004550524F4D2056657273696F6E204572FC
:10347000726F7200454550524F4D20496E64657819
:10348000204572726F7200454550524F4D20435295
:1034900043204572726F72003F0049676E6F72651C
:1034A00000526573657400496E697469616C697A6C
:1034B0006520454550524F4D0000FE0003FF800738
:1034C000C7C00701E00000E00000F0000070040049
:1034D000700E00701F00703F80F00E00E00F01E0E2
:1034E00007C7C003FF8000FE0000FE0003FF800747
:1034F000C7C00F01E00E00E03F80F01F00700E001B
:10350000700400700000700000F00000E00701E0AF
:1035100007C7C003FF8000FE000E000E000E000E65
:10352000000E000E000E000E007FC03F801F000E38
:1035300000040004000E001F003F807FC00E000E3C
:10354000000E000E000E000E000E000E00FFFFFF2A
:103550007F80FFC0FFC0FFC07F807F80FFC0FFC0B3
:10356000FFC03F001E000C0050726F6265205A20A1
:103570004F66667365740052756E6F75742044698A
:103580007374206D6D004C6F6164206D6D00556E1D
:103590006C6F6164206D6D0046696C2E204469611A
:1035A0002E004520696E206D6D5E33004D33303343
:1035B0002055312045256920532569005049442074
:1035C0004175746F74756E65202A005049442D440E
:1035D000202A005049442D49202A005049442D50AA
:1035E000202A0020082046616374002008204D61D5
:1035F00078002008204D696E004F6666004F6E000F
:103600004175746F74656D70004D696E2054726100
:1036100076656C2056656C004D696E2056656C6F42
:1036200063697479004D617820452056656C004DC2
:103630006178205A2056656C004D617820592056DB
:10364000656C004D617820582056656C004D61789E
:10365000204520416363656C004D6178205A20410C
:103660006363656C004D6178205920416363656C2C
:10367000004D6178205820416363656C005472618D
:1036800076656C20416363656C005265747261639A
:103690007420416363656C00416363656C004D6138
:1036A000782045204A65726B004D6178205A204A87
:1036B00065726B004D61782059204A65726B004D30
:1036C00061782058204A65726B0050726F626520E5
:1036D0005A204F66667365740050726F6265205998
:1036E000204F66667365740050726F6265205820C3
:1036F0004F666673657400452073746570732F6D33
:103700006D005A2053746570732F6D6D00592053EE
:10371000746570732F6D6D00582053746570732F2E
:103720006D6D00416476616E6365642053657474E9
:10373000696E6773003F0043616E63656C00496E9C
:10374000697400496E697469616C697A65204545E0
:1037500050524F4D0046696C616D656E7400546542
:103760006D70657261747572650053746570732F46
:103770006D6D0050726F6265204F6666736574737D
:10378000004A65726B00416363656C6572617469C0
:103790006F6E0056656C6F6369747900436F6E6677
:1037A000696775726174696F6E004C617374205A39
:1037B0003A2000476F6F6420506F696E74733A202F
:1037C0000050726F62696E6720506F696E740041BD
:1037D000646A7573742062656420756E74696C2008
:1037E0007468652070726F626520747269676765BE
:1037F00072732E00536B697000446F6E6500473220
:10380000394E003F00436F726E65727320776974A2
:1038100068696E20746F6C6572616E63652E2042FC
:103820006564207472616D6D65642E004E4F0059A1
:103830004553005A2056616C756500496E64657881
:10384000205900496E64657820580053746F726582
:103850002053657474696E6773004C6F6164205304
:10386000657474696E677300426564205472616D9B
:103870006D696E670050726F6265205A204F6666F0
:103880007365740046616465204865696768740003
:103890004F6666004F6E00426564204C6576656C2D
:1038A000696E670045646974204D657368004C65F6
:1038B00076656C20426564004732394E00473239E4
:1038C000004175746F20486F6D65004D6F74696FAE
:1038D0006E003F0043616E63656C204F626A6563F2
:1038E00074004E4F005945530043616E63656C2070
:1038F0004F626A656374203D004D61696E005357E5
:103900002D4D6F64650053746F77004465706C6F64
:10391000790053656C662D54657374005265736548
:103920007400426564004E6F7A7A6C650046616E81
:1039300020537065656400436F6E666967757261D8
:1039400074696F6E00526573746F726520446566AA
:1039500061756C7473004C6F616420536574746995
:103960006E67730053746F72652053657474696E6B
:10397000677300536F756E6400507265686561749B
:10398000202420436F6E6600506F776572204F755C
:1039900074616765004F6666004F6E0052756E6F0A
:1039A00075742053656E736F7200424C546F75636B
:1039B000680050726F6265205A204F6666736574A6
:1039C00000416476616E6365642053657474696E4A
:1039D0006773004D61696E004D37303220542564A5
:1039E000004D36303020423020542564004D3730B1
:1039F00032203B2564004D37303120542564004D82
:103A0000373032004D373031004D363030204230C3
:103A1000004D61696E00436F6E74696E7565004F8D
:103A20006666004F6E0052756E6F75742053656E3A
:103A3000736F72005075726765206D6F726500520A
:103A40004553554D45204F5054494F4E533A005021
:103A500052494E54205041555345440020204E6F4A
:103A60007A7A6C653A20005061726B696E672E2E0F
:103A70002E0000005761697420666F720066696CE1
:103A8000616D656E74206368616E676500746F2098
:103A90007374617274005761697420666F72006696
:103AA000696C616D656E7420756E6C6F6164000089
:103AB0004E6F7A7A6C652068656174696E67005034
:103AC0006C6561736520776169742E2E2E0000503D
:103AD0007265737320627574746F6E00746F206802
:103AE000656174206E6F7A7A6C650000496E73654B
:103AF00072742066696C616D656E7400616E64201D
:103B0000707265737320627574746F6E00746F20C9
:103B1000636F6E74696E7565005761697420666FB6
:103B2000720066696C616D656E74206C6F61640013
:103B300000507265737320427574746F6E00746FF9
:103B400020726573756D65207072696E7400005720
:103B500061697420666F72207072696E7400746F90
:103B600020726573756D652E2E2E00005761697485
:103B700020666F720066696C616D656E7420707589
:103B800072676500003E20005365727669636520A8
:103B90003330306820003E200053657276696365DB
:103BA00020353068200020696E3A003E2000256CE8
:103BB000642E25696D0045787472756465642054BF
:103BC0006F74616C003E20004C6F6E6765737420EB
:103BD0004A6F622054696D65003E2000546F746125
:103BE0006C205072696E742054696D6500436F6D6E
:103BF000706C65746564003A20005072696E7420C0
:103C0000436F756E74003A20003132300035004247
:103C100045443A204550434F53203130304B0052F9
:103C2000756E617761792057617463683A204F4EF1
:103C3000004D61782054656D7000323735004D6954
:103C40006E2054656D7000350045313A2045504373
:103C50004F53203130304B005053550047656E654F
:103C60007269630050726F746F636F6C00312E3035
:103C70000042617564003235303030300043726587
:103C8000616C69747933442052414D50530042694C
:103C90006C696E656172204C6576656C696E670053
:103CA0004578747275646572730031006D61726C71
:103CB000696E66772E6F72670043522D3130205641
:103CC0003300323032322D30352D313300322E3048
:103CD0002E392E322D4449534B2D424C2D32353046
:103CE000303030004D61726C696E005072696E74D4
:103CF000657220537461747300546865726D6973E2
:103D0000746F727300426F61726420496E666F0057
:103D10005072696E74657220496E666F004D6169FC
:103D20006E004D313030300053746F702050726926
:103D30006E7400526573756D65205072696E740003
:103D4000506F776572204F75746167650047323731
:103D50000A4D313137205573657220536372697093
:103D60007420446F6E65005061726B204E6F7A7ADA
:103D70006C65004D61696E003F004261636B0053EA
:103D8000746F70003F00536572766963652035304B
:103D900068003F0053657276696365203330306890
:103DA0000052657365740043616E63656C00526513
:103DB000736574004E6F204D6564696100507269CF
:103DC0006E742066726F6D204D6564696100436892
:103DD000616E6765204D65646961004D3231005345
:103DE000657276696365203330306800536572769A
:103DF000696365203530680041626F7574205072C8
:103E0000696E746572004368616E67652046696C0F
:103E1000616D656E7400437573746F6D20436F6DD3
:103E20006D616E647300436F6E666967757261746D
:103E3000696F6E0054656D706572617475726500AE
:103E40004D6F74696F6E00526573756D65205072A9
:103E5000696E740043616E63656C204F626A6563CE
:103E6000740054756E650053746F70205072696EE3
:103E700074005061757365205072696E7400496EEC
:103E8000666F2053637265656E003F005374617204
:103E900074205072696E740043616E63656C0050EB
:103EA00072696E740043616E6E6F7420656E746526
:103EB00072207375626469723A200002202E2E000F
:103EC0004D61696E005045544700504C41002E0A28
:103ED0000044656C6574696F6E206661696C656429
:103EE0002C2046696C653A200046696C6520646543
:103EF0006C657465643A002F6175746F25632E6775
:103F00000057726974696E6720746F2066696C650A
:103F10003A2000667265736800646F696E670020FE
:103F200066696C653A20004E6F7720000000000043
:103F30000000000000000000000000000000000081
:103F40000000000000000000000000000000000071
:103F50001FE3FFFFFFFFFF00000000000000000064
:103F6000103E000000000080000000000000000083
:103F7000100007FFFFFFC04000000000000000002D
:103F8000100007FFFFFFC02000000000000000003D
:103F9000100007FFFFE040100000000000000000DC
:103FA000138007FFFFE04010000000000000000049
:103FB000138007FFFFE04010000000000000000039
:103FC000138007FFFFE04010000000000000000029
:103FD000138007FFFFE04010000000000000000019
:103FE000138007FFFFE04010000000000000000009
:103FF000100007FFFFE0401000000000000000007C
:10400000100007FFFFE0401000000000000000006B
:10401000100007FFFFE0401000000000000000005B
:10402000100007FFFFE0401000000000000000004B
:10403000100007FFFFE0C0100000000000000000BB
:10404000100003FFFFFFC010000000000000000090
:10405000100003FFFFFFC010000000000000000080
:104060001000000000000010000000000000000030
:104070001000000000000010000000000000000020
:104080001000000000000010000000000000000010
:104090001000000000000010000000000000000000
:1040A00010000000000000100000000000000000F0
:1040B00010000000000000100000000000000000E0
:1040C000101FFFFFFFFFF0100000000000000000C5
:1040D000101FFFFFFFFFF0100000000000000000B5
:1040E000101FF87FFFFFF01000000000000000002C
:1040F000101FF87FFFFFF01000000000000000001C
:10410000101FE07FFFFFF010000000000000000023
:10411000101F007FFE1FF0100000000000000000D4
:10412000101F007FFC3FF0100000000000000000A6
:10413000101F0078041FF0100000000000000000B5
:10414000101FC078803FF010000000000000000049
:10415000101FC078C07FF0100000000000000000B9
:10416000101FC078C07FF0100000000000000000A9
:10417000101FC078807FF0100000000000000000D9
:10418000101FC078807FF0100000000000000000C9
:10419000101FC07C067FF01000000000000000002F
:1041A000101FC07FFFFFF0100000000000000000A3
:1041B000101FC07FFFFFF010000000000000000093
:1041C000101FC038001FF0100000000000000000A9
:1041D000101F0008001FF010000000000000000089
:1041E000101F0038003FF010000000000000000029
:1041F000101FFFF81FFFF01000000000000000007B
:10420000101FFFF81FFFF01000000000000000006A
:10421000101FFFF8003FF010000000000000000039
:10422000101FFFF8003FF010000000000000000029
:10423000101FFFF8000FF010000000000000000049
:10424000101FFFF8000FF010000000000000000039
:10425000101FFFFFF80FF01000000000000000002A
:10426000101FFFFFFC0FF010000000000000000016
:10427000101FFFFFFC0FF010000000000000000006
:10428000179FFFFFF80FF3D00000000000000000B0
:10429000179FFFFFE00FF3D00000000000000000B8
:1042A000179FFFF8000FF010000000000000000052
:1042B000179FFFF8000FF010000000000000000042
:1042C000101FFFF8001FF0100000000000000000A9
:1042D000101FFFFFFFFFF0100000000000000000B3
:1042E000101FFFFFFFFFF0100000000000000000A3
:1042F000100000000000001000000000000000009E
:104300001FFFFFFFFFFFFFF00000000000000000A4
:10431000000000000000000000000000000000009D
:104320000000000000000000000000006D61726CE1
:10433000696E66772E6F726700322E302E392E32FC
:104340002D4449534B2D424C2D3235303030300006
:104350001FFFFFFFFFFFFF600000000001FF4000A4
:1043600000000000FF8000000000007F83CF0000FD
:104370000C303F87FF80000C301F867980000C00D6
:104380000F8C30C7838C30E78C30CFC7CC31F38CA7
:1043900030DCECEC33B98C30D86C6C33198C30D009
:1043A0006C0C33198C30D86C0C33198C30DC6C0EDF
:1043B0003B198C30CF7C079F198C30C77C038F1939
:1043C00040000000000002600000000000061FFF27
:1043D000FFFFFFFFF870012C0190012701B00122BF
:1043E00001C0011D01F00118011002130130020E7D
:1043F000016002090190020401C002FF000003FAFB
:10440000004003F5008003F000D003EB002004E639
:10441000007004E100E004DC004005D700C005D2D4
:10442000004006CD00D006C8008007C3003008BE9B
:1044300000F008B900C009B400B00AAF00B00BAA80
:1044400000D00CA500000EA000500F9B00C01096DD
:10445000005012910000148C00C0158700B0178224
:1044600000B0197D00D01B7800001E730040206E44
:104470000090226900F024640040275F0090295AD0
:1044800000E02B5500102E500020304B001032461B
:1044900000E033410090353C00103737007038326F
:1044A00000A0392D00B03A2800A03B2300603C1E3C
:1044B00000103D1900903D1400103E0F00703E0AA0
:1044C00000C03E0500003F0000403FFBFF803FF67C
:1044D000FFC03FF1FF2020506C616E6E6572427527
:1044E0006666657242797465733A2000204672658B
:1044F00065204D656D6F72793A200020436F6D70B5
:10450000696C65643A204D61792031342032303253
:10451000320A00204C6173742055706461746564C4
:104520003A20323032322D30352D3133207C20414B
:104530007574686F723A204469736B2062617365A9
:1045400064206F6E2046697A692026204161726F6F
:104550006E204A7573742C20435231302D56330A25
:10456000004D61726C696E20322E302E392E322D44
:104570004449534B2D424C2D3235303030300A00F7
:1045800020536F6674776172652052657365740A93
:1045900000205761746368646F67205265736574A7
:1045A0000A002042726F776E206F75742052657317
:1045B00065740A002045787465726E616C205265DE
:1045C0007365740A00506F77657255700A007374D2
:1045D0006172740A004732385859004D3130303119
:1045E000006572726F722077726974696E672074E9
:1045F0006F2066696C650A00446F6E652073617692
:10460000696E672066696C652E0A004D3239004577
:104610006E6473746F7073002553202563202563C7
:104620002025632025630020503A00205A3A0020BC
:10463000593A0020583A00656E6473746F707320A5
:104640006869743A200000000A0B02090C0D0E087C
:10465000070304010000000000000000000000004B
:10466000000000000000000000000000000000004A
:104670000000121110000000000000000000000007
:10468000000000000000000000000000004D6F76F8
:10469000652025736D6D004D6F766520302E316D70
:1046A0006D004D6F766520316D6D004D6F76652024
:1046B00031306D6D004D6F76652041786973004D26
:1046C0006F7665204578747275646572004D6F76FB
:1046D00065205A004D6F76652059004D6F76652034
:1046E0005800CA3EC53E4368616E67652046696CE6
:1046F000616D656E7400556E6C6F61642046696C07
:10470000616D656E74004C6F61642046696C616D0B
:10471000656E7400507265686561742043757374CA
:104720006F6D00507265686561742024004261639A
:104730006B005072696E742066726F6D204D6564F7
:10474000696100FFFFFF50726F62696E672046610A
:10475000696C656400205A3A200020593A200042D2
:10476000656420583A2000726573756D6564004475
:1047700069736D69737300526573756D696E670057
:1047800044697361626C6552756E6F757400507523
:104790007267654D6F7265005061757365640043A3
:1047A0006F6E74696E7565004C6F61642046696C4C
:1047B000616D656E74205400496E73657274206675
:1047C000696C616D656E7420616E642073656E64E2
:1047D000204D3130380A00220A00556E6B6E6F771B
:1047E0006E20636F6D6D616E643A2022002042007E
:1047F0002050006F6B00204500205A0020590020F7
:10480000204D3932205800537465707320706572E2
:1048100020756E69740020746F6F206C6F6E672056
:10482000657874727573696F6E2070726576656EE7
:104830007465640A0020636F6C6420657874727517
:1048400073696F6E2070726576656E7465640A00B8
:1048500020453A00205A3A0020593A00583A006E52
:104860006F74696669636174696F6E20000000226D
:1048700000250028002B002E00310034000201002A
:1048800000050108010B0100002100240027002A77
:10489000002D003000330001010000040107010A6F
:1048A0000105050505070508080808020202020AB5
:1048B0000A080804040404010101010101010103C3
:1048C00003030303030303040707070C0C0C0C0C7E
:1048D0000C0C0C0202020206060606060606060B71
:1048E0000B0B0B0B0B0B0B010210202008081020E8
:1048F000401020408002010201080402010102046C
:10490000081020408080402010080402018004022A
:104910000180402010080402010804020101020481
:104920000810204080010204081020408000E400AC
:10493000220111241FBECFEFD1E2DEBFCDBF00E0C8
:104940000CBF84B78093E21914BE0FB6F894A895F3
:1049500080916000886180936000109260000FBEBB
:1049600015E0A0E0B2E0EAE4F6E003E00BBF02C02D
:1049700007900D92A23BB107D9F729E1A2EBB5E070
:1049800001C01D92A23EB207E1F714E2C8E9D4E2E9
:1049900000E006C021970109802FFE010F94AB7F34
:1049A000C739D10780E00807A9F70F94056D0D946A
:1049B00014830C94000090E080E0089587FD26C0E9
:1049C000811111C080919413209195138217F1F0F9
:1049D000E22FF0E0EC56FC4E828190E02F5F2F77C3
:1049E000209395130895813089F4809112132091BA
:1049F0001313821759F0E22FF0E0EE5EFC4E828135
:104A000090E02F5F2F772093131308958FEF9FEF80
:104A10000895CF93DF93DB01F9019C919130C1F0B0
:104A2000943080F094509C938830D1F480819181AF
:104A3000009771F0019791838083480F591FEA0115
:104A4000188206C08C3539F49C5F9C93943041F4F5
:104A5000DF91CF9108958B3339F781E08C93F8CFB4
:104A600020813181B9016F5F7F4F71836083420F75
:104A7000531FEA018883808191818F3591056CF7FE
:104A8000E7CF0F931F9381E00091CB171091CC17C4
:104A90002091CD173091CE174091C7175091C8176C
:104AA0006091C9177091CA170417150726073707B1
:104AB00008F480E01F910F91089590E080E0089540
:104AC00020913107833021F425FD0CC024FD0CC05A
:104AD00030E0A90102C0559547958A95E2F7CA01D1
:104AE0008170089581E0089580E0089580915007D5
:104AF00084FD0BC08091520787FD07C0909153073A
:104B0000937081E019F480E0089581E00895CF92D8
:104B1000DF92EF92FF92CF93DF93EC01CC80DD80A8
:104B2000EE80FF8022ED30E040EA50ECC701B60194
:104B30000F94DB8187FD23C023E030E046E953E496
:104B4000C701B6010F94E4781816CCF0C880D9805C
:104B5000EA80FB8022ED30E040EA50ECC701B6016C
:104B60000F94DB8187FD0BC0C1E023E030E046E914
:104B700053E4C701B6010F94E47818160CF4C0E0B2
:104B80008C2FDF91CF91FF90EF90DF90CF90089521
:104B90002FEB280F2A3108F047C0E22FF0E0809178
:104BA000500790915107A0915207B091530704C04C
:104BB000B695A795979587952A95D2F780FD02C05F
:104BC00081700895EE5CF84FE081EE2341F1809111
:104BD000950C9091960CE80FF92FF11D808190EDC6
:104BE000980F9A3030F08E3251F4818180538A30A0
:104BF00098F4F0932B07E0932A0781E008958D3213
:104C000011F08B3249F4818190ED980F9A3088F33E
:104C10008E3211F48281EACFF0E0E0E0EACF109228
:104C20002B0710922A07E9CF80E00895B1DF88238F
:104C300041F081E020912A0730912B07232B09F4C2
:104C400080E00895282F80936F02803240F5809194
:104C50004B0A281724F081E0820F80934B0A81E0F1
:104C600090E002C0880F991F2A95E2F7092E000CE8
:104C7000AA0BBB0B4091470A5091480A6091490A20
:104C800070914A0A84239523A623B72321E0892B18
:104C90008A2B8B2B09F420E02093C81208951092E0
:104CA000C81208952F923F924F925F926F927F9217
:104CB0008F929F92AF92BF92CF92DF92EF92FF922C
:104CC0000F931F93CF93DF93CDB7DEB72E970FB619
:104CD000F894DEBF0FBECDBFE82ED62E042F122FC4
:104CE000282F30E03C872B87462F50E05A87498792
:104CF00065E0F62EF29EC001F39E900D11249E8772
:104D00008D87FA01E80FF91FEE0FFF1FEE0FFF1F4F
:104D1000E359F74F60817181828193819B01AC01DE
:104D20000F946A82882309F434C1E00E612F6D0D5F
:104D3000FE9CF0011124A985BA85AE0FBF1FAA0FF2
:104D4000BB1FAA0FBB1FA359B74FAC901196BC90C5
:104D500011971296CC9012971396DC90E00EFE9C61
:104D6000A0011124A985BA85A40FB51FAA0FBB1FE6
:104D7000AA0FBB1FA359B74FEC901196FC90119747
:104D800012960C91129713969C90862F90E0AD8509
:104D9000BE85A80FB91FAA0FBB1FAA0FBB1FA3591F
:104DA000B74F8C9011967C90119712966C90129739
:104DB00013965C90610F70E0AD85BE85A60FB71F9E
:104DC000AA0FBB1FAA0FBB1FA359B74F4C90119638
:104DD0003C90119712961C91129713962C90E80F05
:104DE000F91FEE0FFF1FEE0FFF1FE359F74FB081C2
:104DF000B98321812A8332813B8383818C83FA01A9
:104E0000E60FF71FEE0FFF1FEE0FFF1FE359F74FDF
:104E100090819D83A181AE83B281BF832381288746
:104E20009701402F592DB701802F992D0F946A8239
:104E3000882321F0E12CF12C00E0912C9501A601B2
:104E4000B501C6010F946A82882319F05701C02E5C
:104E5000D92C242D332D412F522D642D732D812FCC
:104E6000922D0F946A82882321F0412C312C10E07E
:104E7000212C282D372D462D552D682D772D862D4B
:104E8000952D0F946A82882321F0842C732C612E37
:104E9000522C2D813E814F8158856D817E818F817D
:104EA00098850F946A82882321F01D821E821F82BA
:104EB000188629813A814B815C8169817A818B8155
:104EC0009C810F946A82882341F03D8139834E8111
:104ED0004A835F815B8388858C8385E0EB85FC85D5
:104EE0008E9FD0018F9FB00D112429853A85A20F86
:104EF000B31FAA0FBB1FAA0FBB1FA359B74FBA8777
:104F0000A9879501A601B501C6010F94B47F970149
:104F1000402F592D0F94B37F6B017C01282D372D25
:104F2000462D552D682D772D862D952D0F94B47F08
:104F3000242D332D412F522D0F94B37F9B01AC01B3
:104F4000C701B6010F94B47F6B017C0129813A81BE
:104F50004B815C8169817A818B819C810F94B47FC4
:104F60002D813E814F8158850F94B37F9B01AC0109
:104F7000C701B6010F94B47F20E030E040E450E474
:104F80000F949080A985BA856D937D938D939C93A2
:104F900013972E960FB6F894DEBF0FBECDBFDF91EC
:104FA000CF911F910F91FF90EF90DF90CF90BF9026
:104FB000AF909F908F907F906F905F904F903F90B9
:104FC0002F9008951092900C80915102909152026E
:104FD000A0915302B09154028093E6089093E708A1
:104FE000A093E808B093E908089590918F0C10926F
:104FF0008F0C9230B1F09430B9F09130D9F488230D
:1050000019F0813021F008959093910C089582E079
:105010008093910C8091900C882361F0109255023E
:10502000D1CF1092920C08958BE594E39093110BDD
:105030008093100B0895269A2E9A0895EF92FF926E
:105040000F931F93CF93DF93EC018B017A018A8535
:105050009B858617970731F0888199810F94FE60B0
:105060001B870A87B701888199810F94EF582E8199
:105070003F81820F932F911D9F838E8390E080E06C
:10508000DF91CF911F910F91FF90EF9008959F9224
:10509000AF92BF92CF92DF92EF92FF920F931F9346
:1050A000CF93DF93EC018B01942EA52E8A859B85EF
:1050B0008617970731F0888199810F94FE601B87CE
:1050C0000A8788859985019649F5BC800A818E8179
:1050D000080FC880D980D6015596ED91FC91C60184
:1050E0001995B80EE92CFA2C10E0F70121917F01F7
:1050F000211127C08E819F81810F911D9F838E83F7
:1051000090E080E0DF91CF911F910F91FF90EF90A1
:10511000DF90CF90BF90AF909F9008950E811F8138
:10512000692D7A2D888199810F94EF58800F912FE6
:10513000911D288539852817390738F681E090E0D8
:10514000E1CF4B2D602FC6010F945661080F180F49
:10515000CCCFDF92EF92FF920F931F93CF93DF9309
:10516000EC01D62E1CAD0BAD7C0184E0E80EF11CE9
:10517000E98DFA8DC7011995412F480F2D2D602F0C
:10518000C7010F9456619BAD890F8BAF81E090E012
:10519000DF91CF911F910F91FF90EF90DF900895D5
:1051A000CF93DF93C0915C0BD0915D0B209729F1D9
:1051B0006091580B7091590B80915A0B90915B0B39
:1051C0000F94F8806E5F7F4F24976C177D07ACF4C7
:1051D0007093FF086093FE080F94275E605E704432
:1051E0008D4F9F4F609300097093010980930209CE
:1051F00090930309DF91CF910895109200091092C6
:1052000001091092020910920309F4CFAB01BC010D
:105210004093CB175093CC176093CD177093CE1754
:1052200084E399E10C94EAA263E00D94FC530F939C
:105230001F93CF93DF9300D01F92CDB7DEB79C01B1
:105240000EE41CE090E1E7E8F2E0D80101900D9255
:105250009A95E1F7F9012081318142815381F8016A
:1052600060857185828593850F94B47FF80160878E
:1052700071878287938780E090E0A0E6B1E489831C
:105280009A83AB83BC83CE0101960E9429E60F90DE
:105290000F900F900F90DF91CF911F910F91089574
:1052A0002F923F924F925F926F927F928F929F9236
:1052B000AF92BF92CF92DF92EF92FF921F93CF9364
:1052C000DF93CDB7DEB72C970FB6F894DEBF0FBED5
:1052D000CDBF7A011901DC012D913D914D915C9179
:1052E0002D833E834F835887FB014080518062802D
:1052F00073808090870290908802A0908902B0907D
:105300008A02A50194016D817E818F8198850F9419
:10531000E47881110EC011E0A301920160918B022B
:1053200070918C0280918D0290918E020F94E4789E
:10533000811110E0D1012D913D914D915C91298712
:105340003A874B875C87F701C080D180E280F38089
:1053500020911402309115024091160250911702CB
:10536000C701B6010F94E478882309F44EC0C092B7
:105370001402D0921502E0921602F0921702809168
:10538000930290919402A0919502B091960240915F
:105390008B0250918C0260918D0270918E028092EE
:1053A0004E0C90924F0CA092500CB092510C409326
:1053B000520C5093530C6093540C7093550CC09244
:1053C000560CD092570CE092580CF092590C8093E6
:1053D0005A0C90935B0CA0935C0CB0935D0C20E096
:1053E00030E040E05FE36091F6127091F712809137
:1053F000F8129091F9120F94497969837A838B831B
:105400009C83CE0101960E9429E62D813E814F8129
:10541000588520934E0C30934F0C4093500C509372
:10542000510C4092520C5092530C6092540C70925A
:10543000550CD1012D913D914D915C9160915A0C8B
:1054400070915B0C80915C0C90915D0C0F94B47F1B
:1054500060935A0C70935B0C80935C0C90935D0C82
:1054600011112FC020E030E0A90169857A858B8574
:105470009C850F94E478811133C060E070E088EC83
:1054800092E469837A838B839C83CE0101960E9488
:1054900029E62C960FB6F894DEBF0FBECDBFDF9184
:1054A000CF911F91FF90EF90DF90CF90BF90AF9082
:1054B0009F908F907F906F905F904F903F902F9034
:1054C00008952AEF3EE74AE25FE36091FA12709195
:1054D000FB128091FC129091FD120F944979D1CF6B
:1054E00060E070E080EA91E4CCCFCF93DF9300D00E
:1054F0001F92CDB7DEB780E090E0A8ECB2E48983DC
:105500009A83AB83BC8361E0CE0101960E94D8C62A
:105510000F900F900F900F90DF91CF910895809191
:105520002A0790912B07009731F04AE050E070E095
:1055300060E00D94057760E070E0CB010895809104
:105540009B0C82FF0BC063E684E998E00F94082768
:105550000F94335E0F947A3081E0089580E00895CF
:1055600080912A0790912B07009731F04AE050E094
:1055700070E060E00D94D87560E070E0CB010895B4
:10558000CF93DF93EB0152DB882311F0E9DFEB01CE
:10559000CE01DF91CF910895E3DF97FD0AC0E0DFF0
:1055A0006F3F71058105910509F02CF4D9DF862F35
:1055B000089580E008958FEF0895CF93C62F36DBCE
:1055C000882311F0CF91E8CF8C2FCF91089580914F
:1055D0002A0790912B07892B39F0DEDF91E08111AA
:1055E00001C090E0892F089591E0FCCFCF93DF9325
:1055F000C82FD62F1BDB882319F0DF91CF91E7CF7F
:105600008C2FC6DA811101C08D2FDF91CF910895C3
:10561000A7DFCB010895CF93DF939091C91293FD3B
:105620005AC0C82F89E402DB882309F447C0B4DFDD
:1056300090E01816190614F481E090E026E0289F07
:10564000F001299FF00D1124E559F44F82819381D7
:10565000D0E08E36910514F08EE690E090935D0BCD
:1056600080935C0B9DDD60915C0B70915D0B072E50
:10567000000C880B990B0F94EA782091580B30910D
:10568000590B40915A0B50915B0B0F94DB8118160C
:1056900094F08DEB98E160E00F94082761E06C27AF
:1056A0008C2F0E9431ADCC23B1F060E08D2FDF91C3
:1056B000CF910C94DAA98CEC98E1EDCF83E5B6DAC2
:1056C000D82F811106C0CC2331F082E5AFDA8823D0
:1056D00011F09EDFBECFDF91CF910895CF93DF937E
:1056E000EB01A4DA882319F0DF91CF9191CFCE019D
:1056F000DF91CF9108950F931F93CF9380912A0745
:1057000090912B070097E9F0FC018F01C1912C2F9C
:105710002F7D81F0C53411F0C536B9F7F80110823C
:1057200070E060E00F948274F801C083CF911F9104
:105730000F91089570E060E0CF911F910F910D944B
:10574000827460E070E0CB01F1CFCF92DF92EF92F4
:10575000FF926A017B016ADA882329F0FF90EF90BB
:10576000DF90CF90C8CFC701B601FF90EF90DF90D8
:10577000CF900895CF92DF92EF92FF920F931F93F5
:10578000CF93DF936B017A01EC01C853D94F288185
:105790003CE0389F8001399F100D112427FF24C061
:1057A000FB011182108288818F5F88838881980134
:1057B000280F311D87FD3A95C90120914017F60148
:1057C0002817190629F024F088818C300CF43CC08D
:1057D00080819181049680349C4908F475C0F6015B
:1057E00080819181049672C088819801280F311DB3
:1057F00087FD3A95C901209140172817190699F29B
:1058000094F28881A801480F511D87FD5A95FA012D
:10581000EE0FFF1FE40FF51FE850F94E808187FF60
:10582000C2CF8881F801E80FF11D87FDFA95CF01FD
:10583000EE0FFF1FE80FF91FE850F94E808160E07E
:105840008F770F94685DAFCF808191812881A80107
:10585000420F511D27FD5A959A01FA01EE0FFF1FC5
:10586000E20FF31FE850F94E21813281820F931F1E
:10587000F7019183808388819801280F311D87FD6E
:105880003A95F901EE0FFF1FE20FF31FE850F94EB2
:10589000808187FF20C08881080F111D87FD1A9520
:1058A000F801EE0FFF1FE00FF11FE850F94E808165
:1058B00061E08F77DF91CF911F910F91FF90EF9073
:1058C000DF90CF900D94685D80E49CE9F7019183AF
:1058D00080838FEF8883DF91CF911F910F91FF908D
:1058E000EF90DF90CF900895119800C09091020141
:1058F00087FD9095917090930001119A00C000C0AF
:10590000119800C09091020186FD9095917090933E
:105910000001119A00C000C0119800C090910201CE
:1059200085FD9095917090930001119A00C000C080
:10593000119800C09091020184FD90959170909310
:105940000001119A00C000C0119800C0909102019E
:1059500083FD9095917090930001119A00C000C052
:10596000119800C09091020182FD909591709093E2
:105970000001119A00C000C0119800C0909102016E
:1059800081FD9095917090930001119A00C000C024
:10599000119800C080910201817080930001119ADA
:1059A00000C000C0089520E030E040E05FE3609177
:1059B000720C7091730C8091740C9091750C0F9413
:1059C000B47F0F94F880CB0108959CE0899F802DCF
:1059D000112491E0980F909326082CE0280F209333
:1059E000A80B30E02E5F3F4F4091B51742171306CA
:1059F00019F014F080E008952091B7179217D0F7AE
:105A0000662341F08E5F0F9427608091A80B8E5F14
:105A10000F9427608091A80B9091B517891750F3C8
:105A20002091B71790912608291720F31092B817E4
:105A30008093B91781E00895CF9380912508811153
:105A400054C01092B8171092B9171092BA1710924A
:105A50008617109285171092881710928717109248
:105A60008A1781E08093891782E280938B171092C6
:105A7000901710928F17E4EAF7E122EB37E18FEFEE
:105A800081932E173F07E1F7C1E0C093A11720EDE6
:105A900030E03093971720939617C0939817109281
:105AA000991710929A1790E490939B1710929C1755
:105AB00020E031E03093B3172093B21723E232E0B5
:105AC000309384172093831797E19093A81791E15F
:105AD0009093A91790E19093A6178093A5178093B0
